:08000000831610308500831205
:080008000511851532202920A5
:080010000F39013E8E008F0044
:08001800203084002920800043
:08002000840A8E0B0E2820302B
:08002800840045200515452068
:080030003F203F200830900042
:08003800800D3D20900B1C28F7
:08004000840A8F0B1A28031437
:080048003D203F204520051179
:08005000072800000000000079
:08005800051E2928000000002C
:0800600000000608000000008A
:080068000000851100000000FA
:080070008515000000000000EE
:0800780008000830031C0430ED
:0800800005114C2005150430A8
:080088004C2800014C2000018E
:080090004C2000014C2000018E
:080098008D008C018C0B4E2839
:0600A0008D0B4D28080045
:00000001FF
